{
    "_format": "hh-sol-artifact-1",
    "contractName": "Cryptwit",
    "sourceName": "contracts/Cryptwit.sol",
    "abi": [
        {
            "anonymous": false,
            "inputs": [
                {
                    "indexed": true,
                    "internalType": "address",
                    "name": "from",
                    "type": "address"
                },
                {
                    "indexed": false,
                    "internalType": "uint256",
                    "name": "timestamp",
                    "type": "uint256"
                },
                {
                    "indexed": false,
                    "internalType": "string",
                    "name": "message",
                    "type": "string"
                }
            ],
            "name": "NewTweet",
            "type": "event"
        },
        {
            "inputs": [],
            "name": "getTweets",
            "outputs": [
                {
                    "components": [
                        {
                            "internalType": "address",
                            "name": "tweeter",
                            "type": "address"
                        },
                        {
                            "internalType": "string",
                            "name": "message",
                            "type": "string"
                        },
                        {
                            "internalType": "uint256",
                            "name": "timestamp",
                            "type": "uint256"
                        }
                    ],
                    "internalType": "struct Cryptwit.Tweet[]",
                    "name": "",
                    "type": "tuple[]"
                }
            ],
            "stateMutability": "view",
            "type": "function"
        },
        {
            "inputs": [
                {
                    "internalType": "address payable",
                    "name": "_to",
                    "type": "address"
                }
            ],
            "name": "tip",
            "outputs": [],
            "stateMutability": "payable",
            "type": "function"
        },
        {
            "inputs": [
                {
                    "internalType": "string",
                    "name": "_message",
                    "type": "string"
                }
            ],
            "name": "tweet",
            "outputs": [],
            "stateMutability": "nonpayable",
            "type": "function"
        }
    ],
    "bytecode": "0x608060405234801561001057600080fd5b506108fc806100206000396000f3fe6080604052600436106100345760003560e01c8063ac733ef714610039578063fb46d4c514610055578063fc86741f1461007e575b600080fd5b610053600480360381019061004e9190610483565b6100a9565b005b34801561006157600080fd5b5061007c600480360381019061007791906104ac565b6100f3565b005b34801561008a57600080fd5b50610093610212565b6040516100a09190610665565b60405180910390f35b8073ffffffffffffffffffffffffffffffffffffffff166108fc349081150290604051600060405180830381858888f193505050501580156100ef573d6000803e3d6000fd5b5050565b600060405180606001604052803373ffffffffffffffffffffffffffffffffffffffff16815260200183815260200142815250908060018154018082558091505060019003906000526020600020906003020160009091909190915060008201518160000160006101000a81548173ffffffffffffffffffffffffffffffffffffffff021916908373ffffffffffffffffffffffffffffffffffffffff16021790555060208201518160010190805190602001906101b2929190610363565b506040820151816002015550503373ffffffffffffffffffffffffffffffffffffffff167f247b19649778c81aad1923b4b49025b7eed6f664d6a4e802190bfb35724f95a94283604051610207929190610687565b60405180910390a250565b60606000805480602002602001604051908101604052809291908181526020016000905b8282101561035a57838290600052602060002090600302016040518060600160405290816000820160009054906101000a900473ffffffffffffffffffffffffffffffffffffffff1673ffffffffffffffffffffffffffffffffffffffff1673ffffffffffffffffffffffffffffffffffffffff1681526020016001820180546102bf9061080e565b80601f01602080910402602001604051908101604052809291908181526020018280546102eb9061080e565b80156103385780601f1061030d57610100808354040283529160200191610338565b820191906000526020600020905b81548152906001019060200180831161031b57829003601f168201915b5050505050815260200160028201548152505081526020019060010190610236565b50505050905090565b82805461036f9061080e565b90600052602060002090601f01602090048101928261039157600085556103d8565b82601f106103aa57805160ff19168380011785556103d8565b828001600101855582156103d8579182015b828111156103d75782518255916020019190600101906103bc565b5b5090506103e591906103e9565b5090565b5b808211156104025760008160009055506001016103ea565b5090565b6000610419610414846106e8565b6106b7565b90508281526020810184848401111561043157600080fd5b61043c8482856107cc565b509392505050565b600081359050610453816108af565b92915050565b600082601f83011261046a57600080fd5b813561047a848260208601610406565b91505092915050565b60006020828403121561049557600080fd5b60006104a384828501610444565b91505092915050565b6000602082840312156104be57600080fd5b600082013567ffffffffffffffff8111156104d857600080fd5b6104e484828501610459565b91505092915050565b60006104f983836105f7565b905092915050565b61050a8161077e565b82525050565b600061051b82610728565b610525818561074b565b93508360208202850161053785610718565b8060005b85811015610573578484038952815161055485826104ed565b945061055f8361073e565b925060208a0199505060018101905061053b565b50829750879550505050505092915050565b600061059082610733565b61059a818561075c565b93506105aa8185602086016107db565b6105b38161089e565b840191505092915050565b60006105c982610733565b6105d3818561076d565b93506105e38185602086016107db565b6105ec8161089e565b840191505092915050565b600060608301600083015161060f6000860182610501565b50602083015184820360208601526106278282610585565b915050604083015161063c6040860182610647565b508091505092915050565b610650816107c2565b82525050565b61065f816107c2565b82525050565b6000602082019050818103600083015261067f8184610510565b905092915050565b600060408201905061069c6000830185610656565b81810360208301526106ae81846105be565b90509392505050565b6000604051905081810181811067ffffffffffffffff821117156106de576106dd61086f565b5b8060405250919050565b600067ffffffffffffffff8211156107035761070261086f565b5b601f19601f8301169050602081019050919050565b6000819050602082019050919050565b600081519050919050565b600081519050919050565b6000602082019050919050565b600082825260208201905092915050565b600082825260208201905092915050565b600082825260208201905092915050565b6000610789826107a2565b9050919050565b600061079b826107a2565b9050919050565b600073ffffffffffffffffffffffffffffffffffffffff82169050919050565b6000819050919050565b82818337600083830152505050565b60005b838110156107f95780820151818401526020810190506107de565b83811115610808576000848401525b50505050565b6000600282049050600182168061082657607f821691505b6020821081141561083a57610839610840565b5b50919050565b7f4e487b7100000000000000000000000000000000000000000000000000000000600052602260045260246000fd5b7f4e487b7100000000000000000000000000000000000000000000000000000000600052604160045260246000fd5b6000601f19601f8301169050919050565b6108b881610790565b81146108c357600080fd5b5056fea26469706673582212203bc27193e7580cc526f41e733adf7d8c33d410fb2bd0cc46356336d7f3235b2f64736f6c63430008000033",
    "linkReferences": {},
    "deployedLinkReferences": {}
}