{
  "_format": "hh-sol-artifact-1",
  "contractName": "Cryptwit",
  "sourceName": "contracts/Cryptwit.sol",
  "abi": [
    {
      "inputs": [],
      "stateMutability": "payable",
      "type": "constructor"
    },
    {
      "anonymous": false,
      "inputs": [
        {
          "indexed": false,
          "internalType": "uint256",
          "name": "amount",
          "type": "uint256"
        }
      ],
      "name": "Deposit",
      "type": "event"
    },
    {
      "anonymous": false,
      "inputs": [
        {
          "indexed": true,
          "internalType": "address",
          "name": "from",
          "type": "address"
        },
        {
          "indexed": false,
          "internalType": "uint256",
          "name": "timestamp",
          "type": "uint256"
        },
        {
          "indexed": false,
          "internalType": "string",
          "name": "message",
          "type": "string"
        }
      ],
      "name": "NewTweet",
      "type": "event"
    },
    {
      "inputs": [],
      "name": "getTweets",
      "outputs": [
        {
          "components": [
            {
              "internalType": "address",
              "name": "tweeter",
              "type": "address"
            },
            {
              "internalType": "string",
              "name": "message",
              "type": "string"
            },
            {
              "internalType": "uint256",
              "name": "timestamp",
              "type": "uint256"
            }
          ],
          "internalType": "struct Cryptwit.Tweet[]",
          "name": "",
          "type": "tuple[]"
        }
      ],
      "stateMutability": "view",
      "type": "function"
    },
    {
      "inputs": [
        {
          "internalType": "address",
          "name": "",
          "type": "address"
        }
      ],
      "name": "lastTweetedAt",
      "outputs": [
        {
          "internalType": "uint256",
          "name": "",
          "type": "uint256"
        }
      ],
      "stateMutability": "view",
      "type": "function"
    },
    {
      "inputs": [
        {
          "internalType": "address payable",
          "name": "_to",
          "type": "address"
        }
      ],
      "name": "tip",
      "outputs": [],
      "stateMutability": "payable",
      "type": "function"
    },
    {
      "inputs": [
        {
          "internalType": "string",
          "name": "_message",
          "type": "string"
        }
      ],
      "name": "tweet",
      "outputs": [],
      "stateMutability": "nonpayable",
      "type": "function"
    },
    {
      "stateMutability": "payable",
      "type": "receive"
    }
  ],
  "bytecode": "0x6080604052620000506040518060400160405280601d81526020017f2564206465706f736974656420696e746f20746865206c6f7474657279000000815250346200007860201b620005361760201c565b60644442620000609190620001e9565b6200006c919062000286565b6001819055506200032d565b6200011a82826040516024016200009192919062000199565b6040516020818303038152906040527f9710a9d0000000000000000000000000000000000000000000000000000000007bffffffffffffffffffffffffffffffffffffffffffffffffffffffff19166020820180517bffffffffffffffffffffffffffffffffffffffffffffffffffffffff83818316178352505050506200011e60201b60201c565b5050565b60008151905060006a636f6e736f6c652e6c6f679050602083016000808483855afa5050505050565b60006200015482620001cd565b620001608185620001d8565b93506200017281856020860162000250565b6200017d816200031c565b840191505092915050565b620001938162000246565b82525050565b60006040820190508181036000830152620001b5818562000147565b9050620001c6602083018462000188565b9392505050565b600081519050919050565b600082825260208201905092915050565b6000620001f68262000246565b9150620002038362000246565b9250827fffffffffffffffffffffffffffffffffffffffffffffffffffffffffffffffff038211156200023b576200023a620002be565b5b828201905092915050565b6000819050919050565b60005b838110156200027057808201518184015260208101905062000253565b8381111562000280576000848401525b50505050565b6000620002938262000246565b9150620002a08362000246565b925082620002b357620002b2620002ed565b5b828206905092915050565b7f4e487b7100000000000000000000000000000000000000000000000000000000600052601160045260246000fd5b7f4e487b7100000000000000000000000000000000000000000000000000000000600052601260045260246000fd5b6000601f19601f8301169050919050565b61109f806200033d6000396000f3fe6080604052600436106100435760003560e01c8063ac733ef714610086578063b281395b146100a2578063fb46d4c5146100df578063fc86741f1461010857610081565b36610081577f4d6ce1e535dbade1c23defba91e23b8f791ce5edc0cc320257a2b364e4e38426346040516100779190610d08565b60405180910390a1005b600080fd5b6100a0600480360381019061009b919061095a565b610133565b005b3480156100ae57600080fd5b506100c960048036038101906100c49190610931565b61017d565b6040516100d69190610d08565b60405180910390f35b3480156100eb57600080fd5b5061010660048036038101906101019190610983565b610195565b005b34801561011457600080fd5b5061011d6103e5565b60405161012a9190610c46565b60405180910390f35b8073ffffffffffffffffffffffffffffffffffffffff166108fc349081150290604051600060405180830381858888f19350505050158015610179573d6000803e3d6000fd5b5050565b60036020528060005260406000206000915090505481565b42601e600360003373ffffffffffffffffffffffffffffffffffffffff1673ffffffffffffffffffffffffffffffffffffffff168152602001908152602001600020546101e29190610e25565b10610222576040517f08c379a000000000000000000000000000000000000000000000000000000000815260040161021990610cc8565b60405180910390fd5b42600360003373ffffffffffffffffffffffffffffffffffffffff1673ffffffffffffffffffffffffffffffffffffffff1681526020019081526020016000208190555060016000808282546102789190610e25565b925050819055506102be6040518060400160405280600e81526020017f2573206861732074776565746564000000000000000000000000000000000000815250336105d2565b600260405180606001604052803373ffffffffffffffffffffffffffffffffffffffff16815260200183815260200142815250908060018154018082558091505060019003906000526020600020906003020160009091909190915060008201518160000160006101000a81548173ffffffffffffffffffffffffffffffffffffffff021916908373ffffffffffffffffffffffffffffffffffffffff160217905550602082015181600101908051906020019061037d9291906107fc565b5060408201518160020155505061039261066e565b3373ffffffffffffffffffffffffffffffffffffffff167f247b19649778c81aad1923b4b49025b7eed6f664d6a4e802190bfb35724f95a942836040516103da929190610d23565b60405180910390a250565b60606002805480602002602001604051908101604052809291908181526020016000905b8282101561052d57838290600052602060002090600302016040518060600160405290816000820160009054906101000a900473ffffffffffffffffffffffffffffffffffffffff1673ffffffffffffffffffffffffffffffffffffffff1673ffffffffffffffffffffffffffffffffffffffff16815260200160018201805461049290610f0b565b80601f01602080910402602001604051908101604052809291908181526020018280546104be90610f0b565b801561050b5780601f106104e05761010080835404028352916020019161050b565b820191906000526020600020905b8154815290600101906020018083116104ee57829003601f168201915b5050505050815260200160028201548152505081526020019060010190610409565b50505050905090565b6105ce828260405160240161054c929190610c98565b6040516020818303038152906040527f9710a9d0000000000000000000000000000000000000000000000000000000007bffffffffffffffffffffffffffffffffffffffffffffffffffffffff19166020820180517bffffffffffffffffffffffffffffffffffffffffffffffffffffffff83818316178352505050506107d3565b5050565b61066a82826040516024016105e8929190610c68565b6040516020818303038152906040527f319af333000000000000000000000000000000000000000000000000000000007bffffffffffffffffffffffffffffffffffffffffffffffffffffffff19166020820180517bffffffffffffffffffffffffffffffffffffffffffffffffffffffff83818316178352505050506107d3565b5050565b6064600154444261067f9190610e25565b6106899190610e25565b6106939190610f3d565b6001819055506106da6040518060400160405280601681526020017f52616e646f6d20232067656e6572617465643a20256400000000000000000000815250600154610536565b6032600154116107d1576107236040518060400160405280600781526020017f257320776f6e2100000000000000000000000000000000000000000000000000815250336105d2565b60003373ffffffffffffffffffffffffffffffffffffffff164760405161074990610c31565b60006040518083038185875af1925050503d8060008114610786576040519150601f19603f3d011682016040523d82523d6000602084013e61078b565b606091505b50509050806107cf576040517f08c379a00000000000000000000000000000000000000000000000000000000081526004016107c690610ce8565b60405180910390fd5b505b565b60008151905060006a636f6e736f6c652e6c6f679050602083016000808483855afa5050505050565b82805461080890610f0b565b90600052602060002090601f01602090048101928261082a5760008555610871565b82601f1061084357805160ff1916838001178555610871565b82800160010185558215610871579182015b82811115610870578251825591602001919060010190610855565b5b50905061087e9190610882565b5090565b5b8082111561089b576000816000905550600101610883565b5090565b60006108b26108ad84610d84565b610d53565b9050828152602081018484840111156108ca57600080fd5b6108d5848285610ec9565b509392505050565b6000813590506108ec8161103b565b92915050565b60008135905061090181611052565b92915050565b600082601f83011261091857600080fd5b813561092884826020860161089f565b91505092915050565b60006020828403121561094357600080fd5b6000610951848285016108dd565b91505092915050565b60006020828403121561096c57600080fd5b600061097a848285016108f2565b91505092915050565b60006020828403121561099557600080fd5b600082013567ffffffffffffffff8111156109af57600080fd5b6109bb84828501610907565b91505092915050565b60006109d08383610bc3565b905092915050565b6109e181610e7b565b82525050565b6109f081610e7b565b82525050565b6000610a0182610dc4565b610a0b8185610de7565b935083602082028501610a1d85610db4565b8060005b85811015610a595784840389528151610a3a85826109c4565b9450610a4583610dda565b925060208a01995050600181019050610a21565b50829750879550505050505092915050565b6000610a7682610dcf565b610a808185610e03565b9350610a90818560208601610ed8565b610a998161102a565b840191505092915050565b6000610aaf82610dcf565b610ab98185610e14565b9350610ac9818560208601610ed8565b610ad28161102a565b840191505092915050565b6000610aea603683610e14565b91507f596f75206d7573742077616974206174206c65617374203330207365636f6e6460008301527f73206265666f72652074776565746e6720616761696e000000000000000000006020830152604082019050919050565b6000610b50602683610e14565b91507f4661696c656420746f207769746864726177206d6f6e65792066726f6d20636f60008301527f6e747261637400000000000000000000000000000000000000000000000000006020830152604082019050919050565b6000610bb6600083610df8565b9150600082019050919050565b6000606083016000830151610bdb60008601826109d8565b5060208301518482036020860152610bf38282610a6b565b9150506040830151610c086040860182610c13565b508091505092915050565b610c1c81610ebf565b82525050565b610c2b81610ebf565b82525050565b6000610c3c82610ba9565b9150819050919050565b60006020820190508181036000830152610c6081846109f6565b905092915050565b60006040820190508181036000830152610c828185610aa4565b9050610c9160208301846109e7565b9392505050565b60006040820190508181036000830152610cb28185610aa4565b9050610cc16020830184610c22565b9392505050565b60006020820190508181036000830152610ce181610add565b9050919050565b60006020820190508181036000830152610d0181610b43565b9050919050565b6000602082019050610d1d6000830184610c22565b92915050565b6000604082019050610d386000830185610c22565b8181036020830152610d4a8184610aa4565b90509392505050565b6000604051905081810181811067ffffffffffffffff82111715610d7a57610d79610ffb565b5b8060405250919050565b600067ffffffffffffffff821115610d9f57610d9e610ffb565b5b601f19601f8301169050602081019050919050565b6000819050602082019050919050565b600081519050919050565b600081519050919050565b6000602082019050919050565b600082825260208201905092915050565b600081905092915050565b600082825260208201905092915050565b600082825260208201905092915050565b6000610e3082610ebf565b9150610e3b83610ebf565b9250827fffffffffffffffffffffffffffffffffffffffffffffffffffffffffffffffff03821115610e7057610e6f610f6e565b5b828201905092915050565b6000610e8682610e9f565b9050919050565b6000610e9882610e9f565b9050919050565b600073ffffffffffffffffffffffffffffffffffffffff82169050919050565b6000819050919050565b82818337600083830152505050565b60005b83811015610ef6578082015181840152602081019050610edb565b83811115610f05576000848401525b50505050565b60006002820490506001821680610f2357607f821691505b60208210811415610f3757610f36610fcc565b5b50919050565b6000610f4882610ebf565b9150610f5383610ebf565b925082610f6357610f62610f9d565b5b828206905092915050565b7f4e487b7100000000000000000000000000000000000000000000000000000000600052601160045260246000fd5b7f4e487b7100000000000000000000000000000000000000000000000000000000600052601260045260246000fd5b7f4e487b7100000000000000000000000000000000000000000000000000000000600052602260045260246000fd5b7f4e487b7100000000000000000000000000000000000000000000000000000000600052604160045260246000fd5b6000601f19601f8301169050919050565b61104481610e7b565b811461104f57600080fd5b50565b61105b81610e8d565b811461106657600080fd5b5056fea26469706673582212209f6fa1a5a31d4331e4992eefc164d5510828da344da09fc1abea2c622832791664736f6c63430008000033",
  "linkReferences": {},
  "deployedLinkReferences": {}
}